:100000000C942A000C9449000C9447000C9447006F
:100010000C9447000C9447000C9447000C94470044
:100020000C9447000C9447000C9447000C94470034
:100030000C9447000C9447000C9447000C94470024
:100040000C9447000C9447000C9447000C94470014
:100050000C94470011241FBECFE5D8E0DEBFCDBF12
:1000600010E0A0E6B0E0ECEAF2E002C005900D92EC
:10007000AA36B107D9F710E0AAE6B0E001C01D9298
:10008000AF36B107E1F70E94F8000C9454010C94CC
:1000900000001F920F920FB60F9211248F93809140
:1000A0006A00882321F481E080936A0002C01092E4
:1000B0006A008F910F900FBE0F901F9018958FEFD1
:1000C00087BB84B38F6084BB089585B7836085BF89
:1000D0008BB780648BBF08959C0168EE73E00E942B
:1000E0002D0160936B00C90168EE73E00E942D0141
:1000F00064E670E00E942D0160936C00C90164E623
:1001000070E00E942D016AE070E00E942D01609372
:100110006D00C9016AE070E00E942D0180936E00BD
:100120000895AF92BF92CF92DF92EF92FF921F930A
:10013000DF93CF93CDB7DEB72A970FB6F894DEBF23
:100140000FBECDBF80916B0090916C0020916D002F
:1001500030916E0010E0AE014F5F5F4F5A01A80E64
:10016000B11C60ED77E06A01C90ED11C7A01E20E84
:10017000F11CCA01830F911D9C01DA01E0E6F0E059
:100180008AE001900D928150E1F7F501808188BBF2
:10019000A89ACB010197F1F7A898F601808188BB56
:1001A000A99ACB010197F1F7A998F701808188BB43
:1001B000AA9ACB010197F1F7AA98F901808188BB2F
:1001C000AB9ACB010197F1F7AB981F5F1436A9F6F4
:1001D0002A960FB6F894DEBF0FBECDBFCF91DF9148
:1001E0001F91FF90EF90DF90CF90BF90AF90089558
:1001F0000F931F93CF93DF938FEF87BB84B38F60F1
:1002000084BB85B7836085BF8BB780648BBF7894D0
:10021000C0E0D0E008EC10E080916A00882311F47F
:10022000219608C021978FEFCF3FD80719F4CFE070
:10023000D7E206C087E2C031D80714F0C0E0D0E0B2
:10024000CE010E946C000E94910088E893E1F801C1
:100250003197F1F70197D9F7DFCF97FB092E0726E2
:100260000AD077FD04D00CD006D000201AF4709587
:1002700061957F4F0895F6F7909581959F4F08956A
:10028000AA1BBB1B51E107C0AA1FBB1FA617B707BC
:1002900010F0A61BB70B881F991F5A95A9F78095D8
:0C02A0009095BC01CD010895F894FFCFAB
:0A02AC003F065B4F666D7D077F6F14
:00000001FF
